{
  "_format": "hh-sol-artifact-1",
  "contractName": "mentoraSwap",
  "sourceName": "contracts/mentoraSwap.sol",
  "abi": [
    {
      "inputs": [
        {
          "internalType": "address",
          "name": "aggregator",
          "type": "address"
        }
      ],
      "stateMutability": "nonpayable",
      "type": "constructor"
    },
    {
      "anonymous": false,
      "inputs": [
        {
          "indexed": true,
          "internalType": "address",
          "name": "_caller",
          "type": "address"
        },
        {
          "indexed": true,
          "internalType": "uint256",
          "name": "_newRange",
          "type": "uint256"
        }
      ],
      "name": "ChangeOnPriceRangeA",
      "type": "event"
    },
    {
      "anonymous": false,
      "inputs": [
        {
          "indexed": true,
          "internalType": "address",
          "name": "_caller",
          "type": "address"
        },
        {
          "indexed": true,
          "internalType": "uint256",
          "name": "_newRange",
          "type": "uint256"
        }
      ],
      "name": "ChangeOnPriceRangeB",
      "type": "event"
    },
    {
      "anonymous": false,
      "inputs": [
        {
          "indexed": true,
          "internalType": "address",
          "name": "_caller",
          "type": "address"
        },
        {
          "indexed": true,
          "internalType": "uint256",
          "name": "_newTxFee",
          "type": "uint256"
        }
      ],
      "name": "ChangeOnTxFeeRangeA",
      "type": "event"
    },
    {
      "anonymous": false,
      "inputs": [
        {
          "indexed": true,
          "internalType": "address",
          "name": "_caller",
          "type": "address"
        },
        {
          "indexed": true,
          "internalType": "uint256",
          "name": "_newTxFee",
          "type": "uint256"
        }
      ],
      "name": "ChangeOnTxFeeRangeB",
      "type": "event"
    },
    {
      "anonymous": false,
      "inputs": [
        {
          "indexed": true,
          "internalType": "address",
          "name": "_caller",
          "type": "address"
        },
        {
          "indexed": true,
          "internalType": "uint256",
          "name": "_newTxFee",
          "type": "uint256"
        }
      ],
      "name": "ChangeOnTxFeeRangeC",
      "type": "event"
    },
    {
      "anonymous": false,
      "inputs": [
        {
          "indexed": true,
          "internalType": "address",
          "name": "_owner",
          "type": "address"
        },
        {
          "indexed": true,
          "internalType": "uint256",
          "name": "_amount",
          "type": "uint256"
        }
      ],
      "name": "ContractWithdraw",
      "type": "event"
    },
    {
      "anonymous": false,
      "inputs": [
        {
          "indexed": true,
          "internalType": "address",
          "name": "_caller",
          "type": "address"
        },
        {
          "indexed": true,
          "internalType": "uint256",
          "name": "_amountIn",
          "type": "uint256"
        },
        {
          "indexed": true,
          "internalType": "uint256",
          "name": "_amountOut",
          "type": "uint256"
        }
      ],
      "name": "MaticToMwpTransaction",
      "type": "event"
    },
    {
      "anonymous": false,
      "inputs": [
        {
          "indexed": true,
          "internalType": "address",
          "name": "_caller",
          "type": "address"
        },
        {
          "indexed": true,
          "internalType": "uint256",
          "name": "_amountIn",
          "type": "uint256"
        },
        {
          "indexed": true,
          "internalType": "uint256",
          "name": "_amountOut",
          "type": "uint256"
        }
      ],
      "name": "MwpToMaticTransaction",
      "type": "event"
    },
    {
      "anonymous": false,
      "inputs": [
        {
          "indexed": true,
          "internalType": "bytes32",
          "name": "role",
          "type": "bytes32"
        },
        {
          "indexed": true,
          "internalType": "bytes32",
          "name": "previousAdminRole",
          "type": "bytes32"
        },
        {
          "indexed": true,
          "internalType": "bytes32",
          "name": "newAdminRole",
          "type": "bytes32"
        }
      ],
      "name": "RoleAdminChanged",
      "type": "event"
    },
    {
      "anonymous": false,
      "inputs": [
        {
          "indexed": true,
          "internalType": "bytes32",
          "name": "role",
          "type": "bytes32"
        },
        {
          "indexed": true,
          "internalType": "address",
          "name": "account",
          "type": "address"
        },
        {
          "indexed": true,
          "internalType": "address",
          "name": "sender",
          "type": "address"
        }
      ],
      "name": "RoleGranted",
      "type": "event"
    },
    {
      "anonymous": false,
      "inputs": [
        {
          "indexed": true,
          "internalType": "bytes32",
          "name": "role",
          "type": "bytes32"
        },
        {
          "indexed": true,
          "internalType": "address",
          "name": "account",
          "type": "address"
        },
        {
          "indexed": true,
          "internalType": "address",
          "name": "sender",
          "type": "address"
        }
      ],
      "name": "RoleRevoked",
      "type": "event"
    },
    {
      "stateMutability": "payable",
      "type": "fallback"
    },
    {
      "inputs": [],
      "name": "CHANGE_FEE_ORDER_AMOUNT_ROLE",
      "outputs": [
        {
          "internalType": "bytes32",
          "name": "",
          "type": "bytes32"
        }
      ],
      "stateMutability": "view",
      "type": "function"
    },
    {
      "inputs": [],
      "name": "DEFAULT_ADMIN_ROLE",
      "outputs": [
        {
          "internalType": "bytes32",
          "name": "",
          "type": "bytes32"
        }
      ],
      "stateMutability": "view",
      "type": "function"
    },
    {
      "inputs": [
        {
          "internalType": "uint256",
          "name": "_deadline",
          "type": "uint256"
        },
        {
          "internalType": "uint256",
          "name": "_minAmountOut",
          "type": "uint256"
        },
        {
          "internalType": "uint24",
          "name": "_fee",
          "type": "uint24"
        }
      ],
      "name": "MaticToMwp",
      "outputs": [],
      "stateMutability": "payable",
      "type": "function"
    },
    {
      "inputs": [],
      "name": "MwpAddress",
      "outputs": [
        {
          "internalType": "address",
          "name": "",
          "type": "address"
        }
      ],
      "stateMutability": "view",
      "type": "function"
    },
    {
      "inputs": [
        {
          "internalType": "uint256",
          "name": "_amountSwap",
          "type": "uint256"
        },
        {
          "internalType": "uint256",
          "name": "_deadline",
          "type": "uint256"
        },
        {
          "internalType": "uint256",
          "name": "_minAmountOut",
          "type": "uint256"
        },
        {
          "internalType": "uint24",
          "name": "_fee",
          "type": "uint24"
        }
      ],
      "name": "MwpToMatic",
      "outputs": [],
      "stateMutability": "nonpayable",
      "type": "function"
    },
    {
      "inputs": [],
      "name": "WITHDRAW_ROLE",
      "outputs": [
        {
          "internalType": "bytes32",
          "name": "",
          "type": "bytes32"
        }
      ],
      "stateMutability": "view",
      "type": "function"
    },
    {
      "inputs": [],
      "name": "bipsTxFeeAmountA",
      "outputs": [
        {
          "internalType": "uint256",
          "name": "",
          "type": "uint256"
        }
      ],
      "stateMutability": "view",
      "type": "function"
    },
    {
      "inputs": [],
      "name": "bipsTxFeeAmountB",
      "outputs": [
        {
          "internalType": "uint256",
          "name": "",
          "type": "uint256"
        }
      ],
      "stateMutability": "view",
      "type": "function"
    },
    {
      "inputs": [],
      "name": "bipsTxFeeAmountC",
      "outputs": [
        {
          "internalType": "uint256",
          "name": "",
          "type": "uint256"
        }
      ],
      "stateMutability": "view",
      "type": "function"
    },
    {
      "inputs": [],
      "name": "decimalValue",
      "outputs": [
        {
          "internalType": "uint8",
          "name": "",
          "type": "uint8"
        }
      ],
      "stateMutability": "view",
      "type": "function"
    },
    {
      "inputs": [],
      "name": "decimalValueData",
      "outputs": [
        {
          "internalType": "uint8",
          "name": "",
          "type": "uint8"
        }
      ],
      "stateMutability": "nonpayable",
      "type": "function"
    },
    {
      "inputs": [],
      "name": "getPriceDolarperMatic",
      "outputs": [
        {
          "internalType": "uint256",
          "name": "",
          "type": "uint256"
        }
      ],
      "stateMutability": "view",
      "type": "function"
    },
    {
      "inputs": [],
      "name": "getPriceDolarperMaticLink",
      "outputs": [
        {
          "internalType": "int256",
          "name": "",
          "type": "int256"
        }
      ],
      "stateMutability": "view",
      "type": "function"
    },
    {
      "inputs": [
        {
          "internalType": "uint256",
          "name": "usd",
          "type": "uint256"
        }
      ],
      "name": "getPriceMATIC",
      "outputs": [
        {
          "internalType": "uint256",
          "name": "",
          "type": "uint256"
        }
      ],
      "stateMutability": "view",
      "type": "function"
    },
    {
      "inputs": [],
      "name": "getPriceMaticperDolar",
      "outputs": [
        {
          "internalType": "uint256",
          "name": "",
          "type": "uint256"
        }
      ],
      "stateMutability": "view",
      "type": "function"
    },
    {
      "inputs": [
        {
          "internalType": "uint256",
          "name": "matic",
          "type": "uint256"
        }
      ],
      "name": "getPriceUSD",
      "outputs": [
        {
          "internalType": "uint256",
          "name": "",
          "type": "uint256"
        }
      ],
      "stateMutability": "view",
      "type": "function"
    },
    {
      "inputs": [
        {
          "internalType": "bytes32",
          "name": "role",
          "type": "bytes32"
        }
      ],
      "name": "getRoleAdmin",
      "outputs": [
        {
          "internalType": "bytes32",
          "name": "",
          "type": "bytes32"
        }
      ],
      "stateMutability": "view",
      "type": "function"
    },
    {
      "inputs": [
        {
          "internalType": "bytes32",
          "name": "role",
          "type": "bytes32"
        },
        {
          "internalType": "address",
          "name": "account",
          "type": "address"
        }
      ],
      "name": "grantRole",
      "outputs": [],
      "stateMutability": "nonpayable",
      "type": "function"
    },
    {
      "inputs": [
        {
          "internalType": "bytes32",
          "name": "role",
          "type": "bytes32"
        },
        {
          "internalType": "address",
          "name": "account",
          "type": "address"
        }
      ],
      "name": "hasRole",
      "outputs": [
        {
          "internalType": "bool",
          "name": "",
          "type": "bool"
        }
      ],
      "stateMutability": "view",
      "type": "function"
    },
    {
      "inputs": [],
      "name": "owner",
      "outputs": [
        {
          "internalType": "address payable",
          "name": "",
          "type": "address"
        }
      ],
      "stateMutability": "view",
      "type": "function"
    },
    {
      "inputs": [],
      "name": "priceRangeA",
      "outputs": [
        {
          "internalType": "uint256",
          "name": "",
          "type": "uint256"
        }
      ],
      "stateMutability": "view",
      "type": "function"
    },
    {
      "inputs": [],
      "name": "priceRangeB",
      "outputs": [
        {
          "internalType": "uint256",
          "name": "",
          "type": "uint256"
        }
      ],
      "stateMutability": "view",
      "type": "function"
    },
    {
      "inputs": [
        {
          "internalType": "bytes32",
          "name": "role",
          "type": "bytes32"
        },
        {
          "internalType": "address",
          "name": "account",
          "type": "address"
        }
      ],
      "name": "renounceRole",
      "outputs": [],
      "stateMutability": "nonpayable",
      "type": "function"
    },
    {
      "inputs": [
        {
          "internalType": "bytes32",
          "name": "role",
          "type": "bytes32"
        },
        {
          "internalType": "address",
          "name": "account",
          "type": "address"
        }
      ],
      "name": "revokeRole",
      "outputs": [],
      "stateMutability": "nonpayable",
      "type": "function"
    },
    {
      "inputs": [
        {
          "internalType": "uint256",
          "name": "_newRangeA",
          "type": "uint256"
        }
      ],
      "name": "setPriceRangeA",
      "outputs": [],
      "stateMutability": "nonpayable",
      "type": "function"
    },
    {
      "inputs": [
        {
          "internalType": "uint256",
          "name": "_newRangeB",
          "type": "uint256"
        }
      ],
      "name": "setPriceRangeB",
      "outputs": [],
      "stateMutability": "nonpayable",
      "type": "function"
    },
    {
      "inputs": [
        {
          "internalType": "uint256",
          "name": "_bipsnewFeeA",
          "type": "uint256"
        }
      ],
      "name": "setTxFeeRangeA",
      "outputs": [],
      "stateMutability": "nonpayable",
      "type": "function"
    },
    {
      "inputs": [
        {
          "internalType": "uint256",
          "name": "_bipsnewFeeB",
          "type": "uint256"
        }
      ],
      "name": "setTxFeeRangeB",
      "outputs": [],
      "stateMutability": "nonpayable",
      "type": "function"
    },
    {
      "inputs": [
        {
          "internalType": "uint256",
          "name": "_bipsnewFeeC",
          "type": "uint256"
        }
      ],
      "name": "setTxFeeRangeC",
      "outputs": [],
      "stateMutability": "nonpayable",
      "type": "function"
    },
    {
      "inputs": [
        {
          "internalType": "bytes4",
          "name": "interfaceId",
          "type": "bytes4"
        }
      ],
      "name": "supportsInterface",
      "outputs": [
        {
          "internalType": "bool",
          "name": "",
          "type": "bool"
        }
      ],
      "stateMutability": "view",
      "type": "function"
    },
    {
      "inputs": [],
      "name": "swapRouter",
      "outputs": [
        {
          "internalType": "contract ISwapRouter",
          "name": "",
          "type": "address"
        }
      ],
      "stateMutability": "view",
      "type": "function"
    },
    {
      "inputs": [],
      "name": "swapRouterAddress",
      "outputs": [
        {
          "internalType": "address",
          "name": "",
          "type": "address"
        }
      ],
      "stateMutability": "view",
      "type": "function"
    },
    {
      "inputs": [],
      "name": "wMaticAddress",
      "outputs": [
        {
          "internalType": "address",
          "name": "",
          "type": "address"
        }
      ],
      "stateMutability": "view",
      "type": "function"
    },
    {
      "inputs": [
        {
          "internalType": "uint256",
          "name": "amount",
          "type": "uint256"
        }
      ],
      "name": "withdraw",
      "outputs": [
        {
          "internalType": "bool",
          "name": "",
          "type": "bool"
        }
      ],
      "stateMutability": "nonpayable",
      "type": "function"
    },
    {
      "stateMutability": "payable",
      "type": "receive"
    }
  ],
  "bytecode": "0x608060405260126001806101000a81548160ff021916908360ff1602179055506064600355604b6004556032600555678ac7230489e8000060065568056bc75e2d631000006007553480156200005457600080fd5b50604051620032ed380380620032ed83398181016040528101906200007a919062000313565b8080600160026101000a81548173ffffffffffffffffffffffffffffffffffffffff021916908373ffffffffffffffffffffffffffffffffffffffff16021790555060126001806101000a81548160ff021916908360ff1602179055505033600260006101000a81548173ffffffffffffffffffffffffffffffffffffffff021916908373ffffffffffffffffffffffffffffffffffffffff1602179055506200012e6000801b336200019960201b60201c565b620001607f5d8e12c39142ff96d79d04d15d1ba1269e4fe57bb9d26f43523628b34ba108ec336200019960201b60201c565b620001927f1d255f909600b558467022be8261c9ac7b499c060decc2b12501aaa7e42ebbec336200019960201b60201c565b5062000398565b620001ab82826200028a60201b60201c565b6200028657600160008084815260200190815260200160002060000160008373ffffffffffffffffffffffffffffffffffffffff1673ffffffffffffffffffffffffffffffffffffffff16815260200190815260200160002060006101000a81548160ff0219169083151502179055506200022b620002f460201b60201c565b73ffffffffffffffffffffffffffffffffffffffff168173ffffffffffffffffffffffffffffffffffffffff16837f2f8788117e7eff1d82e926ec794901d17c78024a50270940304540a733656f0d60405160405180910390a45b5050565b600080600084815260200190815260200160002060000160008373ffffffffffffffffffffffffffffffffffffffff1673ffffffffffffffffffffffffffffffffffffffff16815260200190815260200160002060009054906101000a900460ff16905092915050565b600033905090565b6000815190506200030d816200037e565b92915050565b6000602082840312156200032c576200032b62000379565b5b60006200033c84828501620002fc565b91505092915050565b6000620003528262000359565b9050919050565b600073ffffffffffffffffffffffffffffffffffffffff82169050919050565b600080fd5b620003898162000345565b81146200039557600080fd5b50565b612f4580620003a86000396000f3fe6080604052600436106101fc5760003560e01c806394cde40e1161010d578063d7968bf2116100a0578063e9777ec71161006f578063e9777ec714610777578063e9b7d736146107a2578063eafc37ed146107cd578063fac36b05146107f8578063ffd315cb1461081457610203565b8063d7968bf2146106cd578063ddc7edec146106f8578063e02023a114610721578063e234dc391461074c57610203565b8063b5c96b70116100dc578063b5c96b7014610625578063c31c9c0714610650578063c64663a11461067b578063d547741f146106a457610203565b806394cde40e14610567578063a217fddf146105a4578063aadd10fb146105cf578063b538d681146105fa57610203565b806334359b3b1161019057806376c3be4e1161015f57806376c3be4e1461048057806376fe2e54146104ab5780638da5cb5b146104d457806390fcdb36146104ff57806391d148541461052a57610203565b806334359b3b146103d857806336568abe146104035780634a3b1f761461042c5780636283046c1461045757610203565b8063248a9ca3116101cc578063248a9ca31461030a5780632d559f6a146103475780632e1a7d4d146103725780632f2ff15d146103af57610203565b80623f26271461023e57806301ffc9a7146102675780631d20da3b146102a45780631e05ddb3146102cd57610203565b3661020357005b6040517f08c379a0000000000000000000000000000000000000000000000000000000008152600401610235906126ea565b60405180910390fd5b34801561024a57600080fd5b5061026560048036038101906102609190611fb5565b61083f565b005b34801561027357600080fd5b5061028e60048036038101906102899190611f88565b6108b8565b60405161029b91906125bc565b60405180910390f35b3480156102b057600080fd5b506102cb60048036038101906102c69190612062565b610932565b005b3480156102d957600080fd5b506102f460048036038101906102ef9190611fb5565b610b6f565b6040516103019190612746565b60405180910390f35b34801561031657600080fd5b50610331600480360381019061032c9190611f1b565b610b90565b60405161033e91906125d7565b60405180910390f35b34801561035357600080fd5b5061035c610baf565b6040516103699190612526565b60405180910390f35b34801561037e57600080fd5b5061039960048036038101906103949190611fb5565b610bc7565b6040516103a691906125bc565b60405180910390f35b3480156103bb57600080fd5b506103d660048036038101906103d19190611f48565b610d3f565b005b3480156103e457600080fd5b506103ed610d60565b6040516103fa9190612746565b60405180910390f35b34801561040f57600080fd5b5061042a60048036038101906104259190611f48565b610d66565b005b34801561043857600080fd5b50610441610de9565b60405161044e91906125d7565b60405180910390f35b34801561046357600080fd5b5061047e60048036038101906104799190611fb5565b610e0d565b005b34801561048c57600080fd5b50610495610e86565b6040516104a2919061260d565b60405180910390f35b3480156104b757600080fd5b506104d260048036038101906104cd9190611fb5565b610f36565b005b3480156104e057600080fd5b506104e9610faf565b6040516104f69190612541565b60405180910390f35b34801561050b57600080fd5b50610514610fd5565b6040516105219190612526565b60405180910390f35b34801561053657600080fd5b50610551600480360381019061054c9190611f48565b610fed565b60405161055e91906125bc565b60405180910390f35b34801561057357600080fd5b5061058e60048036038101906105899190611fb5565b611057565b60405161059b9190612746565b60405180910390f35b3480156105b057600080fd5b506105b9611078565b6040516105c691906125d7565b60405180910390f35b3480156105db57600080fd5b506105e461107f565b6040516105f19190612746565b60405180910390f35b34801561060657600080fd5b5061060f6110ab565b60405161061c9190612746565b60405180910390f35b34801561063157600080fd5b5061063a6110b1565b6040516106479190612761565b60405180910390f35b34801561065c57600080fd5b506106656110c2565b60405161067291906125f2565b60405180910390f35b34801561068757600080fd5b506106a2600480360381019061069d9190611fb5565b6110da565b005b3480156106b057600080fd5b506106cb60048036038101906106c69190611f48565b611153565b005b3480156106d957600080fd5b506106e2611174565b6040516106ef9190612761565b60405180910390f35b34801561070457600080fd5b5061071f600480360381019061071a9190611fb5565b611245565b005b34801561072d57600080fd5b506107366112be565b60405161074391906125d7565b60405180910390f35b34801561075857600080fd5b506107616112e2565b60405161076e9190612746565b60405180910390f35b34801561078357600080fd5b5061078c611320565b6040516107999190612746565b60405180910390f35b3480156107ae57600080fd5b506107b7611326565b6040516107c49190612526565b60405180910390f35b3480156107d957600080fd5b506107e261133e565b6040516107ef9190612746565b60405180910390f35b610812600480360381019061080d919061200f565b611344565b005b34801561082057600080fd5b506108296114a9565b6040516108369190612746565b60405180910390f35b7f1d255f909600b558467022be8261c9ac7b499c060decc2b12501aaa7e42ebbec610869816114af565b81600381905550813373ffffffffffffffffffffffffffffffffffffffff167f5e23ee4a5b45deb548226fe35d8c1f0ef6ff438f8737d4b4d40b63ebaf267b5060405160405180910390a35050565b60007f7965db0b000000000000000000000000000000000000000000000000000000007bffffffffffffffffffffffffffffffffffffffffffffffffffffffff1916827bffffffffffffffffffffffffffffffffffffffffffffffffffffffff1916148061092b575061092a826114c3565b5b9050919050565b61095273d2b2ad7252aa2f633223c9863dd979772e7fb41633308761152d565b61098573d2b2ad7252aa2f633223c9863dd979772e7fb41673e592427a0aece92de3edee1f18e0157c0586156486611685565b6109bc73d2b2ad7252aa2f633223c9863dd979772e7fb416739c3c9283d3e44854697cd22d3faa240cfb03288983308789886117da565b600981905550739c3c9283d3e44854697cd22d3faa240cfb03288973ffffffffffffffffffffffffffffffffffffffff16632e1a7d4d6009546040518263ffffffff1660e01b8152600401610a119190612746565b600060405180830381600087803b158015610a2b57600080fd5b505af1158015610a3f573d6000803e3d6000fd5b50505050612710600854600954610a5691906129c1565b610a609190612879565b600954610a6d9190612a1b565b600a8190555060003373ffffffffffffffffffffffffffffffffffffffff16600a54604051610a9b906124d7565b60006040518083038185875af1925050503d8060008114610ad8576040519150601f19603f3d011682016040523d82523d6000602084013e610add565b606091505b5050905080610b21576040517f08c379a0000000000000000000000000000000000000000000000000000000008152600401610b189061268a565b60405180910390fd5b600954853373ffffffffffffffffffffffffffffffffffffffff167f5e12eb6099218bb861c06dc9c95f2aaed7e05970ad96db76610558ce9eb34f9c60405160405180910390a45050505050565b600080610b7a61107f565b83610b8591906129c1565b905080915050919050565b6000806000838152602001908152602001600020600101549050919050565b739c3c9283d3e44854697cd22d3faa240cfb03288981565b60007f5d8e12c39142ff96d79d04d15d1ba1269e4fe57bb9d26f43523628b34ba108ec610bf3816114af565b47831115610c0057600080fd5b6000600260009054906101000a900473ffffffffffffffffffffffffffffffffffffffff1673ffffffffffffffffffffffffffffffffffffffff1684604051610c48906124d7565b60006040518083038185875af1925050503d8060008114610c85576040519150601f19603f3d011682016040523d82523d6000602084013e610c8a565b606091505b5050905080610cce576040517f08c379a0000000000000000000000000000000000000000000000000000000008152600401610cc59061268a565b60405180910390fd5b83600260009054906101000a900473ffffffffffffffffffffffffffffffffffffffff1673ffffffffffffffffffffffffffffffffffffffff167f434a43765b3cd21fa5b240a88fef750a558ba196a12784bdd49335beabc1a39d60405160405180910390a3600192505050919050565b610d4882610b90565b610d51816114af565b610d5b838361192d565b505050565b60075481565b610d6e611a0d565b73ffffffffffffffffffffffffffffffffffffffff168173ffffffffffffffffffffffffffffffffffffffff1614610ddb576040517f08c379a0000000000000000000000000000000000000000000000000000000008152600401610dd29061270a565b60405180910390fd5b610de58282611a15565b5050565b7f1d255f909600b558467022be8261c9ac7b499c060decc2b12501aaa7e42ebbec81565b7f1d255f909600b558467022be8261c9ac7b499c060decc2b12501aaa7e42ebbec610e37816114af565b81600481905550813373ffffffffffffffffffffffffffffffffffffffff167ff2315b78ca04d12b4b4c5d9280584b6c17c1cd5d0991b5596aa9938823be657960405160405180910390a35050565b600080600160029054906101000a900473ffffffffffffffffffffffffffffffffffffffff1673ffffffffffffffffffffffffffffffffffffffff1663feaf968c6040518163ffffffff1660e01b815260040160a06040518083038186803b158015610ef157600080fd5b505afa158015610f05573d6000803e3d6000fd5b505050506040513d601f19601f82011682018060405250810190610f2991906120c9565b5050509150508091505090565b7f1d255f909600b558467022be8261c9ac7b499c060decc2b12501aaa7e42ebbec610f60816114af565b81600581905550813373ffffffffffffffffffffffffffffffffffffffff167f25219c5756ce53bd5b85d48944ff7564f86bd7a5a0ede3eae4c30fc4c6e041e760405160405180910390a35050565b600260009054906101000a900473ffffffffffffffffffffffffffffffffffffffff1681565b73e592427a0aece92de3edee1f18e0157c0586156481565b600080600084815260200190815260200160002060000160008373ffffffffffffffffffffffffffffffffffffffff1673ffffffffffffffffffffffffffffffffffffffff16815260200190815260200160002060009054906101000a900460ff16905092915050565b6000806110626112e2565b8361106d91906129c1565b905080915050919050565b6000801b81565b6000806402540be400611090610e86565b61109a91906128aa565b90506110a581611af6565b91505090565b60035481565b60018054906101000a900460ff1681565b73e592427a0aece92de3edee1f18e0157c0586156481565b7f1d255f909600b558467022be8261c9ac7b499c060decc2b12501aaa7e42ebbec611104816114af565b81600781905550813373ffffffffffffffffffffffffffffffffffffffff167fc3eab81b27f0442bee954ee6245963a75fa6ce26f2989bc3c04d3cafa9c6b36b60405160405180910390a35050565b61115c82610b90565b611165816114af565b61116f8383611a15565b505050565b6000600160029054906101000a900473ffffffffffffffffffffffffffffffffffffffff1673ffffffffffffffffffffffffffffffffffffffff1663313ce5676040518163ffffffff1660e01b815260040160206040518083038186803b1580156111de57600080fd5b505afa1580156111f2573d6000803e3d6000fd5b505050506040513d601f19601f820116820180604052508101906112169190612144565b600160006101000a81548160ff021916908360ff160217905550600160009054906101000a900460ff16905090565b7f1d255f909600b558467022be8261c9ac7b499c060decc2b12501aaa7e42ebbec61126f816114af565b81600681905550813373ffffffffffffffffffffffffffffffffffffffff167f7c28c76ee18b4a4cc0ebcbd74fac008453ff831e487ac497b346a21fbeedecb460405160405180910390a35050565b7f5d8e12c39142ff96d79d04d15d1ba1269e4fe57bb9d26f43523628b34ba108ec81565b6000806112ed610e86565b905060006a52b7d2dcc80cd2e4000000905060006113158383611310919061280f565b611af6565b905080935050505090565b60045481565b73d2b2ad7252aa2f633223c9863dd979772e7fb41681565b60055481565b6127106008543461135591906129c1565b61135f9190612879565b3461136a9190612a1b565b600a81905550739c3c9283d3e44854697cd22d3faa240cfb03288973ffffffffffffffffffffffffffffffffffffffff1663d0e30db0600a546040518263ffffffff1660e01b81526004016000604051808303818588803b1580156113ce57600080fd5b505af11580156113e2573d6000803e3d6000fd5b505050505061141c739c3c9283d3e44854697cd22d3faa240cfb03288973e592427a0aece92de3edee1f18e0157c05861564600a54611685565b611455739c3c9283d3e44854697cd22d3faa240cfb03288973d2b2ad7252aa2f633223c9863dd979772e7fb416833387600a54886117da565b600981905550600954600a543373ffffffffffffffffffffffffffffffffffffffff167f0e3a9b810bb44aa15c4ff52224bf2285c959263bbef50f2f08076265d7bf41e460405160405180910390a4505050565b60065481565b6114c0816114bb611a0d565b611b43565b50565b60007f01ffc9a7000000000000000000000000000000000000000000000000000000007bffffffffffffffffffffffffffffffffffffffffffffffffffffffff1916827bffffffffffffffffffffffffffffffffffffffffffffffffffffffff1916149050919050565b6000808573ffffffffffffffffffffffffffffffffffffffff166323b872dd60e01b8686866040516024016115649392919061255c565b604051602081830303815290604052907bffffffffffffffffffffffffffffffffffffffffffffffffffffffff19166020820180517bffffffffffffffffffffffffffffffffffffffffffffffffffffffff83818316178352505050506040516115ce91906124c0565b6000604051808303816000865af19150503d806000811461160b576040519150601f19603f3d011682016040523d82523d6000602084013e611610565b606091505b509150915081801561163e575060008151148061163d57508080602001905181019061163c9190611eee565b5b5b61167d576040517f08c379a0000000000000000000000000000000000000000000000000000000008152600401611674906126ca565b60405180910390fd5b505050505050565b6000808473ffffffffffffffffffffffffffffffffffffffff1663095ea7b360e01b85856040516024016116ba929190612593565b604051602081830303815290604052907bffffffffffffffffffffffffffffffffffffffffffffffffffffffff19166020820180517bffffffffffffffffffffffffffffffffffffffffffffffffffffffff838183161783525050505060405161172491906124c0565b6000604051808303816000865af19150503d8060008114611761576040519150601f19603f3d011682016040523d82523d6000602084013e611766565b606091505b509150915081801561179457506000815114806117935750808060200190518101906117929190611eee565b5b5b6117d3576040517f08c379a00000000000000000000000000000000000000000000000000000000081526004016117ca9061266a565b60405180910390fd5b5050505050565b6000806040518061010001604052808a73ffffffffffffffffffffffffffffffffffffffff1681526020018973ffffffffffffffffffffffffffffffffffffffff1681526020018862ffffff1681526020018773ffffffffffffffffffffffffffffffffffffffff168152602001868152602001858152602001848152602001600073ffffffffffffffffffffffffffffffffffffffff16815250905073e592427a0aece92de3edee1f18e0157c0586156473ffffffffffffffffffffffffffffffffffffffff1663414bf389826040518263ffffffff1660e01b81526004016118c4919061272a565b602060405180830381600087803b1580156118de57600080fd5b505af11580156118f2573d6000803e3d6000fd5b505050506040513d601f19601f820116820180604052508101906119169190611fe2565b600981905550600954915050979650505050505050565b6119378282610fed565b611a0957600160008084815260200190815260200160002060000160008373ffffffffffffffffffffffffffffffffffffffff1673ffffffffffffffffffffffffffffffffffffffff16815260200190815260200160002060006101000a81548160ff0219169083151502179055506119ae611a0d565b73ffffffffffffffffffffffffffffffffffffffff168173ffffffffffffffffffffffffffffffffffffffff16837f2f8788117e7eff1d82e926ec794901d17c78024a50270940304540a733656f0d60405160405180910390a45b5050565b600033905090565b611a1f8282610fed565b15611af257600080600084815260200190815260200160002060000160008373ffffffffffffffffffffffffffffffffffffffff1673ffffffffffffffffffffffffffffffffffffffff16815260200190815260200160002060006101000a81548160ff021916908315150217905550611a97611a0d565b73ffffffffffffffffffffffffffffffffffffffff168173ffffffffffffffffffffffffffffffffffffffff16837ff6391f5c32d9c69d2a47ea670b442974b53935d1edc7fd64eb21e047a839171b60405160405180910390a45b5050565b600080821215611b3b576040517f08c379a0000000000000000000000000000000000000000000000000000000008152600401611b32906126aa565b60405180910390fd5b819050919050565b611b4d8282610fed565b611bdc57611b728173ffffffffffffffffffffffffffffffffffffffff166014611be0565b611b808360001c6020611be0565b604051602001611b919291906124ec565b6040516020818303038152906040526040517f08c379a0000000000000000000000000000000000000000000000000000000008152600401611bd39190612628565b60405180910390fd5b5050565b606060006002836002611bf391906129c1565b611bfd91906127b9565b67ffffffffffffffff811115611c1657611c15612c3b565b5b6040519080825280601f01601f191660200182016040528015611c485781602001600182028036833780820191505090505b5090507f300000000000000000000000000000000000000000000000000000000000000081600081518110611c8057611c7f612c0c565b5b60200101907effffffffffffffffffffffffffffffffffffffffffffffffffffffffffffff1916908160001a9053507f780000000000000000000000000000000000000000000000000000000000000081600181518110611ce457611ce3612c0c565b5b60200101907effffffffffffffffffffffffffffffffffffffffffffffffffffffffffffff1916908160001a90535060006001846002611d2491906129c1565b611d2e91906127b9565b90505b6001811115611dce577f3031323334353637383961626364656600000000000000000000000000000000600f861660108110611d7057611d6f612c0c565b5b1a60f81b828281518110611d8757611d86612c0c565b5b60200101907effffffffffffffffffffffffffffffffffffffffffffffffffffffffffffff1916908160001a905350600485901c945080611dc790612b84565b9050611d31565b5060008414611e12576040517f08c379a0000000000000000000000000000000000000000000000000000000008152600401611e099061264a565b60405180910390fd5b8091505092915050565b600081359050611e2b81612e40565b92915050565b600081519050611e4081612e57565b92915050565b600081359050611e5581612e6e565b92915050565b600081359050611e6a81612e85565b92915050565b600081519050611e7f81612e9c565b92915050565b600081359050611e9481612eb3565b92915050565b600081359050611ea981612eca565b92915050565b600081519050611ebe81612eca565b92915050565b600081519050611ed381612ef8565b92915050565b600081519050611ee881612ee1565b92915050565b600060208284031215611f0457611f03612c6a565b5b6000611f1284828501611e31565b91505092915050565b600060208284031215611f3157611f30612c6a565b5b6000611f3f84828501611e46565b91505092915050565b60008060408385031215611f5f57611f5e612c6a565b5b6000611f6d85828601611e46565b9250506020611f7e85828601611e1c565b9150509250929050565b600060208284031215611f9e57611f9d612c6a565b5b6000611fac84828501611e5b565b91505092915050565b600060208284031215611fcb57611fca612c6a565b5b6000611fd984828501611e9a565b91505092915050565b600060208284031215611ff857611ff7612c6a565b5b600061200684828501611eaf565b91505092915050565b60008060006060848603121561202857612027612c6a565b5b600061203686828701611e9a565b935050602061204786828701611e9a565b925050604061205886828701611e85565b9150509250925092565b6000806000806080858703121561207c5761207b612c6a565b5b600061208a87828801611e9a565b945050602061209b87828801611e9a565b93505060406120ac87828801611e9a565b92505060606120bd87828801611e85565b91505092959194509250565b600080600080600060a086880312156120e5576120e4612c6a565b5b60006120f388828901611ec4565b955050602061210488828901611e70565b945050604061211588828901611eaf565b935050606061212688828901611eaf565b925050608061213788828901611ec4565b9150509295509295909350565b60006020828403121561215a57612159612c6a565b5b600061216884828501611ed9565b91505092915050565b61217a81612a61565b82525050565b61218981612a4f565b82525050565b61219881612a4f565b82525050565b6121a781612a73565b82525050565b6121b681612a7f565b82525050565b60006121c78261277c565b6121d18185612792565b93506121e1818560208601612b51565b80840191505092915050565b6121f681612b1b565b82525050565b61220581612ab5565b82525050565b600061221682612787565b612220818561279d565b9350612230818560208601612b51565b61223981612c6f565b840191505092915050565b600061224f82612787565b61225981856127ae565b9350612269818560208601612b51565b80840191505092915050565b600061228260208361279d565b915061228d82612c80565b602082019050919050565b60006122a560028361279d565b91506122b082612ca9565b602082019050919050565b60006122c860148361279d565b91506122d382612cd2565b602082019050919050565b60006122eb60208361279d565b91506122f682612cfb565b602082019050919050565b600061230e60038361279d565b915061231982612d24565b602082019050919050565b600061233160378361279d565b915061233c82612d4d565b604082019050919050565b6000612354600083612792565b915061235f82612d9c565b600082019050919050565b60006123776017836127ae565b915061238282612d9f565b601782019050919050565b600061239a6011836127ae565b91506123a582612dc8565b601182019050919050565b60006123bd602f8361279d565b91506123c882612df1565b604082019050919050565b610100820160008201516123ea6000850182612180565b5060208201516123fd6020850182612180565b5060408201516124106040850182612484565b5060608201516124236060850182612180565b5060808201516124366080850182612493565b5060a082015161244960a0850182612493565b5060c082015161245c60c0850182612493565b5060e082015161246f60e0850182612475565b50505050565b61247e81612abf565b82525050565b61248d81612adf565b82525050565b61249c81612aee565b82525050565b6124ab81612aee565b82525050565b6124ba81612af8565b82525050565b60006124cc82846121bc565b915081905092915050565b60006124e282612347565b9150819050919050565b60006124f78261236a565b91506125038285612244565b915061250e8261238d565b915061251a8284612244565b91508190509392505050565b600060208201905061253b600083018461218f565b92915050565b60006020820190506125566000830184612171565b92915050565b6000606082019050612571600083018661218f565b61257e602083018561218f565b61258b60408301846124a2565b949350505050565b60006040820190506125a8600083018561218f565b6125b560208301846124a2565b9392505050565b60006020820190506125d1600083018461219e565b92915050565b60006020820190506125ec60008301846121ad565b92915050565b600060208201905061260760008301846121ed565b92915050565b600060208201905061262260008301846121fc565b92915050565b60006020820190508181036000830152612642818461220b565b905092915050565b6000602082019050818103600083015261266381612275565b9050919050565b6000602082019050818103600083015261268381612298565b9050919050565b600060208201905081810360008301526126a3816122bb565b9050919050565b600060208201905081810360008301526126c3816122de565b9050919050565b600060208201905081810360008301526126e381612301565b9050919050565b6000602082019050818103600083015261270381612324565b9050919050565b60006020820190508181036000830152612723816123b0565b9050919050565b60006101008201905061274060008301846123d3565b92915050565b600060208201905061275b60008301846124a2565b92915050565b600060208201905061277660008301846124b1565b92915050565b600081519050919050565b600081519050919050565b600081905092915050565b600082825260208201905092915050565b600081905092915050565b60006127c482612aee565b91506127cf83612aee565b9250827fffffffffffffffffffffffffffffffffffffffffffffffffffffffffffffffff0382111561280457612803612bae565b5b828201905092915050565b600061281a82612ab5565b915061282583612ab5565b92508261283557612834612bdd565b5b600160000383147f80000000000000000000000000000000000000000000000000000000000000008314161561286e5761286d612bae565b5b828205905092915050565b600061288482612aee565b915061288f83612aee565b92508261289f5761289e612bdd565b5b828204905092915050565b60006128b582612ab5565b91506128c083612ab5565b9250827f7fffffffffffffffffffffffffffffffffffffffffffffffffffffffffffffff04821160008413600084131616156128ff576128fe612bae565b5b817f8000000000000000000000000000000000000000000000000000000000000000058312600084126000841316161561293c5761293b612bae565b5b827f8000000000000000000000000000000000000000000000000000000000000000058212600084136000841216161561297957612978612bae565b5b827f7fffffffffffffffffffffffffffffffffffffffffffffffffffffffffffffff05821260008412600084121616156129b6576129b5612bae565b5b828202905092915050565b60006129cc82612aee565b91506129d783612aee565b9250817fffffffffffffffffffffffffffffffffffffffffffffffffffffffffffffffff0483118215151615612a1057612a0f612bae565b5b828202905092915050565b6000612a2682612aee565b9150612a3183612aee565b925082821015612a4457612a43612bae565b5b828203905092915050565b6000612a5a82612abf565b9050919050565b6000612a6c82612abf565b9050919050565b60008115159050919050565b6000819050919050565b60007fffffffff0000000000000000000000000000000000000000000000000000000082169050919050565b6000819050919050565b600073ffffffffffffffffffffffffffffffffffffffff82169050919050565b600062ffffff82169050919050565b6000819050919050565b600060ff82169050919050565b600069ffffffffffffffffffff82169050919050565b6000612b2682612b2d565b9050919050565b6000612b3882612b3f565b9050919050565b6000612b4a82612abf565b9050919050565b60005b83811015612b6f578082015181840152602081019050612b54565b83811115612b7e576000848401525b50505050565b6000612b8f82612aee565b91506000821415612ba357612ba2612bae565b5b600182039050919050565b7f4e487b7100000000000000000000000000000000000000000000000000000000600052601160045260246000fd5b7f4e487b7100000000000000000000000000000000000000000000000000000000600052601260045260246000fd5b7f4e487b7100000000000000000000000000000000000000000000000000000000600052603260045260246000fd5b7f4e487b7100000000000000000000000000000000000000000000000000000000600052604160045260246000fd5b600080fd5b6000601f19601f8301169050919050565b7f537472696e67733a20686578206c656e67746820696e73756666696369656e74600082015250565b7f5341000000000000000000000000000000000000000000000000000000000000600082015250565b7f4661696c757265206f6e20776974686472617721000000000000000000000000600082015250565b7f53616665436173743a2076616c7565206d75737420626520706f736974697665600082015250565b7f5354460000000000000000000000000000000000000000000000000000000000600082015250565b7f4f7065726174696f6e206e6f7420616c6c6f7765642e20506c6561736520657860008201527f656375746520612076616c69642066756e6374696f6e21000000000000000000602082015250565b50565b7f416363657373436f6e74726f6c3a206163636f756e7420000000000000000000600082015250565b7f206973206d697373696e6720726f6c6520000000000000000000000000000000600082015250565b7f416363657373436f6e74726f6c3a2063616e206f6e6c792072656e6f756e636560008201527f20726f6c657320666f722073656c660000000000000000000000000000000000602082015250565b612e4981612a4f565b8114612e5457600080fd5b50565b612e6081612a73565b8114612e6b57600080fd5b50565b612e7781612a7f565b8114612e8257600080fd5b50565b612e8e81612a89565b8114612e9957600080fd5b50565b612ea581612ab5565b8114612eb057600080fd5b50565b612ebc81612adf565b8114612ec757600080fd5b50565b612ed381612aee565b8114612ede57600080fd5b50565b612eea81612af8565b8114612ef557600080fd5b50565b612f0181612b05565b8114612f0c57600080fd5b5056fea2646970667358221220b24187e074537096fdf006537531d3ffaafff0c758aad0d3834bca2a6069f83664736f6c63430008070033",
  "linkReferences": {},
  "deployedLinkReferences": {}
}