{
  "_format": "hh-sol-artifact-1",
  "contractName": "mentoraSwap",
  "sourceName": "contracts/mentoraSwap.sol",
  "abi": [
    {
      "inputs": [
        {
          "internalType": "address",
          "name": "aggregator",
          "type": "address"
        },
        {
          "internalType": "address",
          "name": "",
          "type": "address"
        }
      ],
      "stateMutability": "nonpayable",
      "type": "constructor"
    },
    {
      "anonymous": false,
      "inputs": [
        {
          "indexed": true,
          "internalType": "address",
          "name": "_caller",
          "type": "address"
        },
        {
          "indexed": true,
          "internalType": "uint256",
          "name": "_newRange",
          "type": "uint256"
        }
      ],
      "name": "ChangeOnPriceRangeA",
      "type": "event"
    },
    {
      "anonymous": false,
      "inputs": [
        {
          "indexed": true,
          "internalType": "address",
          "name": "_caller",
          "type": "address"
        },
        {
          "indexed": true,
          "internalType": "uint256",
          "name": "_newRange",
          "type": "uint256"
        }
      ],
      "name": "ChangeOnPriceRangeB",
      "type": "event"
    },
    {
      "anonymous": false,
      "inputs": [
        {
          "indexed": true,
          "internalType": "address",
          "name": "_caller",
          "type": "address"
        },
        {
          "indexed": true,
          "internalType": "uint256",
          "name": "_newTxFee",
          "type": "uint256"
        }
      ],
      "name": "ChangeOnTxFeeRangeA",
      "type": "event"
    },
    {
      "anonymous": false,
      "inputs": [
        {
          "indexed": true,
          "internalType": "address",
          "name": "_caller",
          "type": "address"
        },
        {
          "indexed": true,
          "internalType": "uint256",
          "name": "_newTxFee",
          "type": "uint256"
        }
      ],
      "name": "ChangeOnTxFeeRangeB",
      "type": "event"
    },
    {
      "anonymous": false,
      "inputs": [
        {
          "indexed": true,
          "internalType": "address",
          "name": "_caller",
          "type": "address"
        },
        {
          "indexed": true,
          "internalType": "uint256",
          "name": "_newTxFee",
          "type": "uint256"
        }
      ],
      "name": "ChangeOnTxFeeRangeC",
      "type": "event"
    },
    {
      "anonymous": false,
      "inputs": [
        {
          "indexed": true,
          "internalType": "address",
          "name": "_owner",
          "type": "address"
        },
        {
          "indexed": true,
          "internalType": "uint256",
          "name": "_amount",
          "type": "uint256"
        }
      ],
      "name": "ContractWithdraw",
      "type": "event"
    },
    {
      "anonymous": false,
      "inputs": [
        {
          "indexed": true,
          "internalType": "address",
          "name": "_caller",
          "type": "address"
        },
        {
          "indexed": true,
          "internalType": "uint256",
          "name": "_amountIn",
          "type": "uint256"
        },
        {
          "indexed": true,
          "internalType": "uint256",
          "name": "_amountOut",
          "type": "uint256"
        }
      ],
      "name": "MaticToMwpTransaction",
      "type": "event"
    },
    {
      "anonymous": false,
      "inputs": [
        {
          "indexed": true,
          "internalType": "address",
          "name": "_caller",
          "type": "address"
        },
        {
          "indexed": true,
          "internalType": "uint256",
          "name": "_amountIn",
          "type": "uint256"
        },
        {
          "indexed": true,
          "internalType": "uint256",
          "name": "_amountOut",
          "type": "uint256"
        }
      ],
      "name": "MwpToMaticTransaction",
      "type": "event"
    },
    {
      "stateMutability": "payable",
      "type": "fallback"
    },
    {
      "inputs": [
        {
          "internalType": "uint256",
          "name": "_deadline",
          "type": "uint256"
        },
        {
          "internalType": "uint256",
          "name": "_minAmountOut",
          "type": "uint256"
        },
        {
          "internalType": "uint24",
          "name": "_fee",
          "type": "uint24"
        }
      ],
      "name": "MaticToMwp",
      "outputs": [],
      "stateMutability": "payable",
      "type": "function"
    },
    {
      "inputs": [],
      "name": "MwpAddress",
      "outputs": [
        {
          "internalType": "address",
          "name": "",
          "type": "address"
        }
      ],
      "stateMutability": "view",
      "type": "function"
    },
    {
      "inputs": [
        {
          "internalType": "uint256",
          "name": "_amountSwap",
          "type": "uint256"
        },
        {
          "internalType": "uint256",
          "name": "_deadline",
          "type": "uint256"
        },
        {
          "internalType": "uint256",
          "name": "_minAmountOut",
          "type": "uint256"
        },
        {
          "internalType": "uint24",
          "name": "_fee",
          "type": "uint24"
        }
      ],
      "name": "MwpToMatic",
      "outputs": [],
      "stateMutability": "nonpayable",
      "type": "function"
    },
    {
      "inputs": [],
      "name": "bipsTxFeeAmountA",
      "outputs": [
        {
          "internalType": "uint256",
          "name": "",
          "type": "uint256"
        }
      ],
      "stateMutability": "view",
      "type": "function"
    },
    {
      "inputs": [],
      "name": "bipsTxFeeAmountB",
      "outputs": [
        {
          "internalType": "uint256",
          "name": "",
          "type": "uint256"
        }
      ],
      "stateMutability": "view",
      "type": "function"
    },
    {
      "inputs": [],
      "name": "bipsTxFeeAmountC",
      "outputs": [
        {
          "internalType": "uint256",
          "name": "",
          "type": "uint256"
        }
      ],
      "stateMutability": "view",
      "type": "function"
    },
    {
      "inputs": [],
      "name": "decimalValue",
      "outputs": [
        {
          "internalType": "uint8",
          "name": "",
          "type": "uint8"
        }
      ],
      "stateMutability": "view",
      "type": "function"
    },
    {
      "inputs": [],
      "name": "decimalValueData",
      "outputs": [
        {
          "internalType": "uint8",
          "name": "",
          "type": "uint8"
        }
      ],
      "stateMutability": "nonpayable",
      "type": "function"
    },
    {
      "inputs": [],
      "name": "getPriceDolarperMatic",
      "outputs": [
        {
          "internalType": "uint256",
          "name": "",
          "type": "uint256"
        }
      ],
      "stateMutability": "view",
      "type": "function"
    },
    {
      "inputs": [],
      "name": "getPriceDolarperMaticLink",
      "outputs": [
        {
          "internalType": "int256",
          "name": "",
          "type": "int256"
        }
      ],
      "stateMutability": "view",
      "type": "function"
    },
    {
      "inputs": [
        {
          "internalType": "uint256",
          "name": "usd",
          "type": "uint256"
        }
      ],
      "name": "getPriceMATIC",
      "outputs": [
        {
          "internalType": "uint256",
          "name": "",
          "type": "uint256"
        }
      ],
      "stateMutability": "view",
      "type": "function"
    },
    {
      "inputs": [],
      "name": "getPriceMaticperDolar",
      "outputs": [
        {
          "internalType": "uint256",
          "name": "",
          "type": "uint256"
        }
      ],
      "stateMutability": "view",
      "type": "function"
    },
    {
      "inputs": [
        {
          "internalType": "uint256",
          "name": "matic",
          "type": "uint256"
        }
      ],
      "name": "getPriceUSD",
      "outputs": [
        {
          "internalType": "uint256",
          "name": "",
          "type": "uint256"
        }
      ],
      "stateMutability": "view",
      "type": "function"
    },
    {
      "inputs": [],
      "name": "owner",
      "outputs": [
        {
          "internalType": "address payable",
          "name": "",
          "type": "address"
        }
      ],
      "stateMutability": "view",
      "type": "function"
    },
    {
      "inputs": [],
      "name": "priceRangeA",
      "outputs": [
        {
          "internalType": "uint256",
          "name": "",
          "type": "uint256"
        }
      ],
      "stateMutability": "view",
      "type": "function"
    },
    {
      "inputs": [],
      "name": "priceRangeB",
      "outputs": [
        {
          "internalType": "uint256",
          "name": "",
          "type": "uint256"
        }
      ],
      "stateMutability": "view",
      "type": "function"
    },
    {
      "inputs": [
        {
          "internalType": "uint256",
          "name": "_newRangeA",
          "type": "uint256"
        }
      ],
      "name": "setPriceRangeA",
      "outputs": [],
      "stateMutability": "nonpayable",
      "type": "function"
    },
    {
      "inputs": [
        {
          "internalType": "uint256",
          "name": "_newRangeB",
          "type": "uint256"
        }
      ],
      "name": "setPriceRangeB",
      "outputs": [],
      "stateMutability": "nonpayable",
      "type": "function"
    },
    {
      "inputs": [
        {
          "internalType": "uint256",
          "name": "_bipsnewFeeA",
          "type": "uint256"
        }
      ],
      "name": "setTxFeeRangeA",
      "outputs": [],
      "stateMutability": "nonpayable",
      "type": "function"
    },
    {
      "inputs": [
        {
          "internalType": "uint256",
          "name": "_bipsnewFeeB",
          "type": "uint256"
        }
      ],
      "name": "setTxFeeRangeB",
      "outputs": [],
      "stateMutability": "nonpayable",
      "type": "function"
    },
    {
      "inputs": [
        {
          "internalType": "uint256",
          "name": "_bipsnewFeeC",
          "type": "uint256"
        }
      ],
      "name": "setTxFeeRangeC",
      "outputs": [],
      "stateMutability": "nonpayable",
      "type": "function"
    },
    {
      "inputs": [],
      "name": "swapRouter",
      "outputs": [
        {
          "internalType": "contract ISwapRouter",
          "name": "",
          "type": "address"
        }
      ],
      "stateMutability": "view",
      "type": "function"
    },
    {
      "inputs": [],
      "name": "swapRouterAddress",
      "outputs": [
        {
          "internalType": "address",
          "name": "",
          "type": "address"
        }
      ],
      "stateMutability": "view",
      "type": "function"
    },
    {
      "inputs": [],
      "name": "wMaticAddress",
      "outputs": [
        {
          "internalType": "address",
          "name": "",
          "type": "address"
        }
      ],
      "stateMutability": "view",
      "type": "function"
    },
    {
      "inputs": [
        {
          "internalType": "uint256",
          "name": "amount",
          "type": "uint256"
        }
      ],
      "name": "withdraw",
      "outputs": [
        {
          "internalType": "bool",
          "name": "",
          "type": "bool"
        }
      ],
      "stateMutability": "nonpayable",
      "type": "function"
    },
    {
      "stateMutability": "payable",
      "type": "receive"
    }
  ],
  "bytecode": "0x60806040526012600060016101000a81548160ff021916908360ff16021790555061012c60055560646006556032600755678ac7230489e8000060085568056bc75e2d631000006009553480156200005657600080fd5b50604051620022243803806200222483398181016040528101906200007c91906200013b565b8180600060026101000a81548173ffffffffffffffffffffffffffffffffffffffff021916908373ffffffffffffffffffffffffffffffffffffffff1602179055506012600060016101000a81548160ff021916908360ff1602179055505033600160006101000a81548173ffffffffffffffffffffffffffffffffffffffff021916908373ffffffffffffffffffffffffffffffffffffffff1602179055505050620001d5565b6000815190506200013581620001bb565b92915050565b60008060408385031215620001555762000154620001b6565b5b6000620001658582860162000124565b9250506020620001788582860162000124565b9150509250929050565b60006200018f8262000196565b9050919050565b600073ffffffffffffffffffffffffffffffffffffffff82169050919050565b600080fd5b620001c68162000182565b8114620001d257600080fd5b50565b61203f80620001e56000396000f3fe6080604052600436106101695760003560e01c8063aadd10fb116100d1578063ddc7edec1161008a578063e9b7d73611610064578063e9b7d7361461055c578063eafc37ed14610587578063fac36b05146105b2578063ffd315cb146105ce57610170565b8063ddc7edec146104dd578063e234dc3914610506578063e9777ec71461053157610170565b8063aadd10fb146103dd578063b538d68114610408578063b5c96b7014610433578063c31c9c071461045e578063c64663a114610489578063d7968bf2146104b257610170565b80636283046c116101235780636283046c146102cd57806376c3be4e146102f657806376fe2e54146103215780638da5cb5b1461034a57806390fcdb361461037557806394cde40e146103a057610170565b80623f2627146101ab5780631d20da3b146101d45780631e05ddb3146101fd5780632d559f6a1461023a5780632e1a7d4d1461026557806334359b3b146102a257610170565b3661017057005b6040517f08c379a00000000000000000000000000000000000000000000000000000000081526004016101a290611a4e565b60405180910390fd5b3480156101b757600080fd5b506101d260048036038101906101cd91906114b5565b6105f9565b005b3480156101e057600080fd5b506101fb60048036038101906101f69190611562565b610647565b005b34801561020957600080fd5b50610224600480360381019061021f91906114b5565b610884565b6040516102319190611a8a565b60405180910390f35b34801561024657600080fd5b5061024f6108a5565b60405161025c91906118e7565b60405180910390f35b34801561027157600080fd5b5061028c600480360381019061028791906114b5565b6108bd565b604051610299919061197d565b60405180910390f35b3480156102ae57600080fd5b506102b7610a64565b6040516102c49190611a8a565b60405180910390f35b3480156102d957600080fd5b506102f460048036038101906102ef91906114b5565b610a6a565b005b34801561030257600080fd5b5061030b610ab8565b60405161031891906119b3565b60405180910390f35b34801561032d57600080fd5b50610348600480360381019061034391906114b5565b610b68565b005b34801561035657600080fd5b5061035f610bb6565b60405161036c9190611902565b60405180910390f35b34801561038157600080fd5b5061038a610bdc565b60405161039791906118e7565b60405180910390f35b3480156103ac57600080fd5b506103c760048036038101906103c291906114b5565b610bf4565b6040516103d49190611a8a565b60405180910390f35b3480156103e957600080fd5b506103f2610c15565b6040516103ff9190611a8a565b60405180910390f35b34801561041457600080fd5b5061041d610c41565b60405161042a9190611a8a565b60405180910390f35b34801561043f57600080fd5b50610448610c47565b6040516104559190611aa5565b60405180910390f35b34801561046a57600080fd5b50610473610c5a565b6040516104809190611998565b60405180910390f35b34801561049557600080fd5b506104b060048036038101906104ab91906114b5565b610c72565b005b3480156104be57600080fd5b506104c7610cc0565b6040516104d49190611aa5565b60405180910390f35b3480156104e957600080fd5b5061050460048036038101906104ff91906114b5565b610d8d565b005b34801561051257600080fd5b5061051b610ddb565b6040516105289190611a8a565b60405180910390f35b34801561053d57600080fd5b50610546610e19565b6040516105539190611a8a565b60405180910390f35b34801561056857600080fd5b50610571610e1f565b60405161057e91906118e7565b60405180910390f35b34801561059357600080fd5b5061059c610e37565b6040516105a99190611a8a565b60405180910390f35b6105cc60048036038101906105c7919061150f565b610e3d565b005b3480156105da57600080fd5b506105e3610fa2565b6040516105f09190611a8a565b60405180910390f35b80600581905550803373ffffffffffffffffffffffffffffffffffffffff167f5e23ee4a5b45deb548226fe35d8c1f0ef6ff438f8737d4b4d40b63ebaf267b5060405160405180910390a350565b61066773d2b2ad7252aa2f633223c9863dd979772e7fb416333087610fa8565b61069a73d2b2ad7252aa2f633223c9863dd979772e7fb41673e592427a0aece92de3edee1f18e0157c0586156486611100565b6106d173d2b2ad7252aa2f633223c9863dd979772e7fb416739c3c9283d3e44854697cd22d3faa240cfb0328898330878988611255565b600381905550739c3c9283d3e44854697cd22d3faa240cfb03288973ffffffffffffffffffffffffffffffffffffffff16632e1a7d4d6003546040518263ffffffff1660e01b81526004016107269190611a8a565b600060405180830381600087803b15801561074057600080fd5b505af1158015610754573d6000803e3d6000fd5b5050505061271060025460035461076b9190611c99565b6107759190611b51565b6003546107829190611cf3565b60048190555060003373ffffffffffffffffffffffffffffffffffffffff166004546040516107b0906118d2565b60006040518083038185875af1925050503d80600081146107ed576040519150601f19603f3d011682016040523d82523d6000602084013e6107f2565b606091505b5050905080610836576040517f08c379a000000000000000000000000000000000000000000000000000000000815260040161082d906119ee565b60405180910390fd5b600354853373ffffffffffffffffffffffffffffffffffffffff167f5e12eb6099218bb861c06dc9c95f2aaed7e05970ad96db76610558ce9eb34f9c60405160405180910390a45050505050565b60008061088f610c15565b8361089a9190611c99565b905080915050919050565b739c3c9283d3e44854697cd22d3faa240cfb03288981565b6000600160009054906101000a900473ffffffffffffffffffffffffffffffffffffffff1673ffffffffffffffffffffffffffffffffffffffff163373ffffffffffffffffffffffffffffffffffffffff161461091957600080fd5b4782111561092657600080fd5b6000600160009054906101000a900473ffffffffffffffffffffffffffffffffffffffff1673ffffffffffffffffffffffffffffffffffffffff168360405161096e906118d2565b60006040518083038185875af1925050503d80600081146109ab576040519150601f19603f3d011682016040523d82523d6000602084013e6109b0565b606091505b50509050806109f4576040517f08c379a00000000000000000000000000000000000000000000000000000000081526004016109eb906119ee565b60405180910390fd5b82600160009054906101000a900473ffffffffffffffffffffffffffffffffffffffff1673ffffffffffffffffffffffffffffffffffffffff167f434a43765b3cd21fa5b240a88fef750a558ba196a12784bdd49335beabc1a39d60405160405180910390a36001915050919050565b60095481565b80600681905550803373ffffffffffffffffffffffffffffffffffffffff167ff2315b78ca04d12b4b4c5d9280584b6c17c1cd5d0991b5596aa9938823be657960405160405180910390a350565b600080600060029054906101000a900473ffffffffffffffffffffffffffffffffffffffff1673ffffffffffffffffffffffffffffffffffffffff1663feaf968c6040518163ffffffff1660e01b815260040160a06040518083038186803b158015610b2357600080fd5b505afa158015610b37573d6000803e3d6000fd5b505050506040513d601f19601f82011682018060405250810190610b5b91906115c9565b5050509150508091505090565b80600781905550803373ffffffffffffffffffffffffffffffffffffffff167f25219c5756ce53bd5b85d48944ff7564f86bd7a5a0ede3eae4c30fc4c6e041e760405160405180910390a350565b600160009054906101000a900473ffffffffffffffffffffffffffffffffffffffff1681565b73e592427a0aece92de3edee1f18e0157c0586156481565b600080610bff610ddb565b83610c0a9190611c99565b905080915050919050565b6000806402540be400610c26610ab8565b610c309190611b82565b9050610c3b816113a8565b91505090565b60055481565b600060019054906101000a900460ff1681565b73e592427a0aece92de3edee1f18e0157c0586156481565b80600981905550803373ffffffffffffffffffffffffffffffffffffffff167fc3eab81b27f0442bee954ee6245963a75fa6ce26f2989bc3c04d3cafa9c6b36b60405160405180910390a350565b60008060029054906101000a900473ffffffffffffffffffffffffffffffffffffffff1673ffffffffffffffffffffffffffffffffffffffff1663313ce5676040518163ffffffff1660e01b815260040160206040518083038186803b158015610d2957600080fd5b505afa158015610d3d573d6000803e3d6000fd5b505050506040513d601f19601f82011682018060405250810190610d619190611644565b6000806101000a81548160ff021916908360ff16021790555060008054906101000a900460ff16905090565b80600881905550803373ffffffffffffffffffffffffffffffffffffffff167f7c28c76ee18b4a4cc0ebcbd74fac008453ff831e487ac497b346a21fbeedecb460405160405180910390a350565b600080610de6610ab8565b905060006a52b7d2dcc80cd2e400000090506000610e0e8383610e099190611ae7565b6113a8565b905080935050505090565b60065481565b73d2b2ad7252aa2f633223c9863dd979772e7fb41681565b60075481565b61271060025434610e4e9190611c99565b610e589190611b51565b34610e639190611cf3565b600481905550739c3c9283d3e44854697cd22d3faa240cfb03288973ffffffffffffffffffffffffffffffffffffffff1663d0e30db06004546040518263ffffffff1660e01b81526004016000604051808303818588803b158015610ec757600080fd5b505af1158015610edb573d6000803e3d6000fd5b5050505050610f15739c3c9283d3e44854697cd22d3faa240cfb03288973e592427a0aece92de3edee1f18e0157c05861564600454611100565b610f4e739c3c9283d3e44854697cd22d3faa240cfb03288973d2b2ad7252aa2f633223c9863dd979772e7fb41683338760045488611255565b6003819055506003546004543373ffffffffffffffffffffffffffffffffffffffff167f0e3a9b810bb44aa15c4ff52224bf2285c959263bbef50f2f08076265d7bf41e460405160405180910390a4505050565b60085481565b6000808573ffffffffffffffffffffffffffffffffffffffff166323b872dd60e01b868686604051602401610fdf9392919061191d565b604051602081830303815290604052907bffffffffffffffffffffffffffffffffffffffffffffffffffffffff19166020820180517bffffffffffffffffffffffffffffffffffffffffffffffffffffffff838183161783525050505060405161104991906118bb565b6000604051808303816000865af19150503d8060008114611086576040519150601f19603f3d011682016040523d82523d6000602084013e61108b565b606091505b50915091508180156110b957506000815114806110b85750808060200190518101906110b79190611488565b5b5b6110f8576040517f08c379a00000000000000000000000000000000000000000000000000000000081526004016110ef90611a2e565b60405180910390fd5b505050505050565b6000808473ffffffffffffffffffffffffffffffffffffffff1663095ea7b360e01b8585604051602401611135929190611954565b604051602081830303815290604052907bffffffffffffffffffffffffffffffffffffffffffffffffffffffff19166020820180517bffffffffffffffffffffffffffffffffffffffffffffffffffffffff838183161783525050505060405161119f91906118bb565b6000604051808303816000865af19150503d80600081146111dc576040519150601f19603f3d011682016040523d82523d6000602084013e6111e1565b606091505b509150915081801561120f575060008151148061120e57508080602001905181019061120d9190611488565b5b5b61124e576040517f08c379a0000000000000000000000000000000000000000000000000000000008152600401611245906119ce565b60405180910390fd5b5050505050565b6000806040518061010001604052808a73ffffffffffffffffffffffffffffffffffffffff1681526020018973ffffffffffffffffffffffffffffffffffffffff1681526020018862ffffff1681526020018773ffffffffffffffffffffffffffffffffffffffff168152602001868152602001858152602001848152602001600073ffffffffffffffffffffffffffffffffffffffff16815250905073e592427a0aece92de3edee1f18e0157c0586156473ffffffffffffffffffffffffffffffffffffffff1663414bf389826040518263ffffffff1660e01b815260040161133f9190611a6e565b602060405180830381600087803b15801561135957600080fd5b505af115801561136d573d6000803e3d6000fd5b505050506040513d601f19601f8201168201806040525081019061139191906114e2565b600381905550600354915050979650505050505050565b6000808212156113ed576040517f08c379a00000000000000000000000000000000000000000000000000000000081526004016113e490611a0e565b60405180910390fd5b819050919050565b60008151905061140481611f7f565b92915050565b60008151905061141981611f96565b92915050565b60008135905061142e81611fad565b92915050565b60008135905061144381611fc4565b92915050565b60008151905061145881611fc4565b92915050565b60008151905061146d81611ff2565b92915050565b60008151905061148281611fdb565b92915050565b60006020828403121561149e5761149d611e84565b5b60006114ac848285016113f5565b91505092915050565b6000602082840312156114cb576114ca611e84565b5b60006114d984828501611434565b91505092915050565b6000602082840312156114f8576114f7611e84565b5b600061150684828501611449565b91505092915050565b60008060006060848603121561152857611527611e84565b5b600061153686828701611434565b935050602061154786828701611434565b92505060406115588682870161141f565b9150509250925092565b6000806000806080858703121561157c5761157b611e84565b5b600061158a87828801611434565b945050602061159b87828801611434565b93505060406115ac87828801611434565b92505060606115bd8782880161141f565b91505092959194509250565b600080600080600060a086880312156115e5576115e4611e84565b5b60006115f38882890161145e565b95505060206116048882890161140a565b945050604061161588828901611449565b935050606061162688828901611449565b92505060806116378882890161145e565b9150509295509295909350565b60006020828403121561165a57611659611e84565b5b600061166884828501611473565b91505092915050565b61167a81611d39565b82525050565b61168981611d27565b82525050565b61169881611d27565b82525050565b6116a781611d4b565b82525050565b60006116b882611ac0565b6116c28185611acb565b93506116d2818560208601611df3565b80840191505092915050565b6116e781611dbd565b82525050565b6116f681611d57565b82525050565b6000611709600283611ad6565b915061171482611e89565b602082019050919050565b600061172c601483611ad6565b915061173782611eb2565b602082019050919050565b600061174f602083611ad6565b915061175a82611edb565b602082019050919050565b6000611772600383611ad6565b915061177d82611f04565b602082019050919050565b6000611795603783611ad6565b91506117a082611f2d565b604082019050919050565b60006117b8600083611acb565b91506117c382611f7c565b600082019050919050565b610100820160008201516117e56000850182611680565b5060208201516117f86020850182611680565b50604082015161180b604085018261187f565b50606082015161181e6060850182611680565b506080820151611831608085018261188e565b5060a082015161184460a085018261188e565b5060c082015161185760c085018261188e565b5060e082015161186a60e0850182611870565b50505050565b61187981611d61565b82525050565b61188881611d81565b82525050565b61189781611d90565b82525050565b6118a681611d90565b82525050565b6118b581611d9a565b82525050565b60006118c782846116ad565b915081905092915050565b60006118dd826117ab565b9150819050919050565b60006020820190506118fc600083018461168f565b92915050565b60006020820190506119176000830184611671565b92915050565b6000606082019050611932600083018661168f565b61193f602083018561168f565b61194c604083018461189d565b949350505050565b6000604082019050611969600083018561168f565b611976602083018461189d565b9392505050565b6000602082019050611992600083018461169e565b92915050565b60006020820190506119ad60008301846116de565b92915050565b60006020820190506119c860008301846116ed565b92915050565b600060208201905081810360008301526119e7816116fc565b9050919050565b60006020820190508181036000830152611a078161171f565b9050919050565b60006020820190508181036000830152611a2781611742565b9050919050565b60006020820190508181036000830152611a4781611765565b9050919050565b60006020820190508181036000830152611a6781611788565b9050919050565b600061010082019050611a8460008301846117ce565b92915050565b6000602082019050611a9f600083018461189d565b92915050565b6000602082019050611aba60008301846118ac565b92915050565b600081519050919050565b600081905092915050565b600082825260208201905092915050565b6000611af282611d57565b9150611afd83611d57565b925082611b0d57611b0c611e55565b5b600160000383147f800000000000000000000000000000000000000000000000000000000000000083141615611b4657611b45611e26565b5b828205905092915050565b6000611b5c82611d90565b9150611b6783611d90565b925082611b7757611b76611e55565b5b828204905092915050565b6000611b8d82611d57565b9150611b9883611d57565b9250827f7fffffffffffffffffffffffffffffffffffffffffffffffffffffffffffffff0482116000841360008413161615611bd757611bd6611e26565b5b817f80000000000000000000000000000000000000000000000000000000000000000583126000841260008413161615611c1457611c13611e26565b5b827f80000000000000000000000000000000000000000000000000000000000000000582126000841360008412161615611c5157611c50611e26565b5b827f7fffffffffffffffffffffffffffffffffffffffffffffffffffffffffffffff0582126000841260008412161615611c8e57611c8d611e26565b5b828202905092915050565b6000611ca482611d90565b9150611caf83611d90565b9250817fffffffffffffffffffffffffffffffffffffffffffffffffffffffffffffffff0483118215151615611ce857611ce7611e26565b5b828202905092915050565b6000611cfe82611d90565b9150611d0983611d90565b925082821015611d1c57611d1b611e26565b5b828203905092915050565b6000611d3282611d61565b9050919050565b6000611d4482611d61565b9050919050565b60008115159050919050565b6000819050919050565b600073ffffffffffffffffffffffffffffffffffffffff82169050919050565b600062ffffff82169050919050565b6000819050919050565b600060ff82169050919050565b600069ffffffffffffffffffff82169050919050565b6000611dc882611dcf565b9050919050565b6000611dda82611de1565b9050919050565b6000611dec82611d61565b9050919050565b60005b83811015611e11578082015181840152602081019050611df6565b83811115611e20576000848401525b50505050565b7f4e487b7100000000000000000000000000000000000000000000000000000000600052601160045260246000fd5b7f4e487b7100000000000000000000000000000000000000000000000000000000600052601260045260246000fd5b600080fd5b7f5341000000000000000000000000000000000000000000000000000000000000600082015250565b7f4661696c757265206f6e20776974686472617721000000000000000000000000600082015250565b7f53616665436173743a2076616c7565206d75737420626520706f736974697665600082015250565b7f5354460000000000000000000000000000000000000000000000000000000000600082015250565b7f4f7065726174696f6e206e6f7420616c6c6f7765642e20506c6561736520657860008201527f656375746520612076616c69642066756e6374696f6e21000000000000000000602082015250565b50565b611f8881611d4b565b8114611f9357600080fd5b50565b611f9f81611d57565b8114611faa57600080fd5b50565b611fb681611d81565b8114611fc157600080fd5b50565b611fcd81611d90565b8114611fd857600080fd5b50565b611fe481611d9a565b8114611fef57600080fd5b50565b611ffb81611da7565b811461200657600080fd5b5056fea2646970667358221220c33af46c9f55c9a87d191eb063bf1dec294899c904587e2a367817514ca98f1664736f6c63430008070033",
  "linkReferences": {},
  "deployedLinkReferences": {}
}